{
    "contractName": "MyEpicNFT",
    "abi": [
        {
            "inputs": [],
            "stateMutability": "nonpayable",
            "type": "constructor"
        },
        {
            "anonymous": false,
            "inputs": [
                {
                    "indexed": true,
                    "internalType": "address",
                    "name": "owner",
                    "type": "address"
                },
                {
                    "indexed": true,
                    "internalType": "address",
                    "name": "approved",
                    "type": "address"
                },
                {
                    "indexed": true,
                    "internalType": "uint256",
                    "name": "tokenId",
                    "type": "uint256"
                }
            ],
            "name": "Approval",
            "type": "event"
        },
        {
            "anonymous": false,
            "inputs": [
                {
                    "indexed": true,
                    "internalType": "address",
                    "name": "owner",
                    "type": "address"
                },
                {
                    "indexed": true,
                    "internalType": "address",
                    "name": "operator",
                    "type": "address"
                },
                {
                    "indexed": false,
                    "internalType": "bool",
                    "name": "approved",
                    "type": "bool"
                }
            ],
            "name": "ApprovalForAll",
            "type": "event"
        },
        {
            "anonymous": false,
            "inputs": [
                {
                    "indexed": true,
                    "internalType": "address",
                    "name": "from",
                    "type": "address"
                },
                {
                    "indexed": true,
                    "internalType": "address",
                    "name": "to",
                    "type": "address"
                },
                {
                    "indexed": true,
                    "internalType": "uint256",
                    "name": "tokenId",
                    "type": "uint256"
                }
            ],
            "name": "Transfer",
            "type": "event"
        },
        {
            "inputs": [
                {
                    "internalType": "address",
                    "name": "to",
                    "type": "address"
                },
                {
                    "internalType": "uint256",
                    "name": "tokenId",
                    "type": "uint256"
                }
            ],
            "name": "approve",
            "outputs": [],
            "stateMutability": "nonpayable",
            "type": "function"
        },
        {
            "inputs": [
                {
                    "internalType": "address",
                    "name": "owner",
                    "type": "address"
                }
            ],
            "name": "balanceOf",
            "outputs": [
                {
                    "internalType": "uint256",
                    "name": "",
                    "type": "uint256"
                }
            ],
            "stateMutability": "view",
            "type": "function"
        },
        {
            "inputs": [
                {
                    "internalType": "uint256",
                    "name": "tokenId",
                    "type": "uint256"
                }
            ],
            "name": "getApproved",
            "outputs": [
                {
                    "internalType": "address",
                    "name": "",
                    "type": "address"
                }
            ],
            "stateMutability": "view",
            "type": "function"
        },
        {
            "inputs": [
                {
                    "internalType": "uint256",
                    "name": "_tokenId",
                    "type": "uint256"
                }
            ],
            "name": "getNFTOwner",
            "outputs": [
                {
                    "internalType": "address",
                    "name": "tokenOwner",
                    "type": "address"
                }
            ],
            "stateMutability": "view",
            "type": "function"
        },
        {
            "inputs": [
                {
                    "internalType": "address",
                    "name": "owner",
                    "type": "address"
                },
                {
                    "internalType": "address",
                    "name": "operator",
                    "type": "address"
                }
            ],
            "name": "isApprovedForAll",
            "outputs": [
                {
                    "internalType": "bool",
                    "name": "",
                    "type": "bool"
                }
            ],
            "stateMutability": "view",
            "type": "function"
        },
        {
            "inputs": [],
            "name": "makeAnEpicNFT",
            "outputs": [],
            "stateMutability": "nonpayable",
            "type": "function"
        },
        {
            "inputs": [],
            "name": "name",
            "outputs": [
                {
                    "internalType": "string",
                    "name": "",
                    "type": "string"
                }
            ],
            "stateMutability": "view",
            "type": "function"
        },
        {
            "inputs": [
                {
                    "internalType": "uint256",
                    "name": "tokenId",
                    "type": "uint256"
                }
            ],
            "name": "ownerOf",
            "outputs": [
                {
                    "internalType": "address",
                    "name": "",
                    "type": "address"
                }
            ],
            "stateMutability": "view",
            "type": "function"
        },
        {
            "inputs": [
                {
                    "internalType": "address",
                    "name": "from",
                    "type": "address"
                },
                {
                    "internalType": "address",
                    "name": "to",
                    "type": "address"
                },
                {
                    "internalType": "uint256",
                    "name": "tokenId",
                    "type": "uint256"
                }
            ],
            "name": "safeTransferFrom",
            "outputs": [],
            "stateMutability": "nonpayable",
            "type": "function"
        },
        {
            "inputs": [
                {
                    "internalType": "address",
                    "name": "from",
                    "type": "address"
                },
                {
                    "internalType": "address",
                    "name": "to",
                    "type": "address"
                },
                {
                    "internalType": "uint256",
                    "name": "tokenId",
                    "type": "uint256"
                },
                {
                    "internalType": "bytes",
                    "name": "_data",
                    "type": "bytes"
                }
            ],
            "name": "safeTransferFrom",
            "outputs": [],
            "stateMutability": "nonpayable",
            "type": "function"
        },
        {
            "inputs": [
                {
                    "internalType": "address",
                    "name": "operator",
                    "type": "address"
                },
                {
                    "internalType": "bool",
                    "name": "approved",
                    "type": "bool"
                }
            ],
            "name": "setApprovalForAll",
            "outputs": [],
            "stateMutability": "nonpayable",
            "type": "function"
        },
        {
            "inputs": [
                {
                    "internalType": "bytes4",
                    "name": "interfaceId",
                    "type": "bytes4"
                }
            ],
            "name": "supportsInterface",
            "outputs": [
                {
                    "internalType": "bool",
                    "name": "",
                    "type": "bool"
                }
            ],
            "stateMutability": "view",
            "type": "function"
        },
        {
            "inputs": [],
            "name": "symbol",
            "outputs": [
                {
                    "internalType": "string",
                    "name": "",
                    "type": "string"
                }
            ],
            "stateMutability": "view",
            "type": "function"
        },
        {
            "inputs": [
                {
                    "internalType": "uint256",
                    "name": "tokenId",
                    "type": "uint256"
                }
            ],
            "name": "tokenURI",
            "outputs": [
                {
                    "internalType": "string",
                    "name": "",
                    "type": "string"
                }
            ],
            "stateMutability": "view",
            "type": "function"
        },
        {
            "inputs": [
                {
                    "internalType": "address",
                    "name": "from",
                    "type": "address"
                },
                {
                    "internalType": "address",
                    "name": "to",
                    "type": "address"
                },
                {
                    "internalType": "uint256",
                    "name": "tokenId",
                    "type": "uint256"
                }
            ],
            "name": "transferFrom",
            "outputs": [],
            "stateMutability": "nonpayable",
            "type": "function"
        }
    ],
    "bytecode": "60806040523480156200001157600080fd5b50604080518082018252600981526814dc5d585c9953919560ba1b60208083019182528351808501909452600684526553515541524560d01b908401528151919291620000619160009162000125565b5080516200007790600190602084019062000125565b505050620000b0604051806040016040528060088152602001674e4654206865726560c01b815250620000b660201b6200099f1760201c565b62000260565b6200010181604051602401620000cd9190620001cb565b60408051601f198184030181529190526020810180516001600160e01b0390811663104c13eb60e21b179091526200010416565b50565b80516a636f6e736f6c652e6c6f67602083016000808483855afa5050505050565b828054620001339062000223565b90600052602060002090601f016020900481019282620001575760008555620001a2565b82601f106200017257805160ff1916838001178555620001a2565b82800160010185558215620001a2579182015b82811115620001a257825182559160200191906001019062000185565b50620001b0929150620001b4565b5090565b5b80821115620001b05760008155600101620001b5565b600060208083528351808285015260005b81811015620001fa57858101830151858201604001528201620001dc565b818111156200020d576000604083870101525b50601f01601f1916929092016040019392505050565b600181811c908216806200023857607f821691505b602082108114156200025a57634e487b7160e01b600052602260045260246000fd5b50919050565b6118b880620002706000396000f3fe608060405234801561001057600080fd5b50600436106100f55760003560e01c806370a0823111610097578063c87b56dd11610066578063c87b56dd146101ff578063de9d132f14610212578063deaea2e31461021a578063e985e9c51461022d57600080fd5b806370a08231146101b057806395d89b41146101d1578063a22cb465146101d9578063b88d4fde146101ec57600080fd5b8063095ea7b3116100d3578063095ea7b31461016257806323b872dd1461017757806342842e0e1461018a5780636352211e1461019d57600080fd5b806301ffc9a7146100fa57806306fdde0314610122578063081812fc14610137575b600080fd5b61010d610108366004611370565b610269565b60405190151581526020015b60405180910390f35b61012a6102bb565b60405161011991906113e5565b61014a6101453660046113f8565b61034d565b6040516001600160a01b039091168152602001610119565b610175610170366004611428565b6103da565b005b610175610185366004611452565b6104f0565b610175610198366004611452565b610521565b61014a6101ab3660046113f8565b61053c565b6101c36101be36600461148e565b6105b3565b604051908152602001610119565b61012a61063a565b6101756101e73660046114a9565b610649565b6101756101fa3660046114fb565b61070e565b61012a61020d3660046113f8565b610746565b6101756108bd565b61014a6102283660046113f8565b61095d565b61010d61023b3660046115d7565b6001600160a01b03918216600090815260056020908152604080832093909416825291909152205460ff1690565b60006001600160e01b031982166380ac58cd60e01b148061029a57506001600160e01b03198216635b5e139f60e01b145b806102b557506301ffc9a760e01b6001600160e01b03198316145b92915050565b6060600080546102ca9061160a565b80601f01602080910402602001604051908101604052809291908181526020018280546102f69061160a565b80156103435780601f1061031857610100808354040283529160200191610343565b820191906000526020600020905b81548152906001019060200180831161032657829003601f168201915b5050505050905090565b6000610358826109e2565b6103be5760405162461bcd60e51b815260206004820152602c60248201527f4552433732313a20617070726f76656420717565727920666f72206e6f6e657860448201526b34b9ba32b73a103a37b5b2b760a11b60648201526084015b60405180910390fd5b506000908152600460205260409020546001600160a01b031690565b60006103e58261053c565b9050806001600160a01b0316836001600160a01b031614156104535760405162461bcd60e51b815260206004820152602160248201527f4552433732313a20617070726f76616c20746f2063757272656e74206f776e656044820152603960f91b60648201526084016103b5565b336001600160a01b038216148061046f575061046f813361023b565b6104e15760405162461bcd60e51b815260206004820152603860248201527f4552433732313a20617070726f76652063616c6c6572206973206e6f74206f7760448201527f6e6572206e6f7220617070726f76656420666f7220616c6c000000000000000060648201526084016103b5565b6104eb83836109ff565b505050565b6104fa3382610a6d565b6105165760405162461bcd60e51b81526004016103b590611645565b6104eb838383610b53565b6104eb8383836040518060200160405280600081525061070e565b6000818152600260205260408120546001600160a01b0316806102b55760405162461bcd60e51b815260206004820152602960248201527f4552433732313a206f776e657220717565727920666f72206e6f6e657869737460448201526832b73a103a37b5b2b760b91b60648201526084016103b5565b60006001600160a01b03821661061e5760405162461bcd60e51b815260206004820152602a60248201527f4552433732313a2062616c616e636520717565727920666f7220746865207a65604482015269726f206164647265737360b01b60648201526084016103b5565b506001600160a01b031660009081526003602052604090205490565b6060600180546102ca9061160a565b6001600160a01b0382163314156106a25760405162461bcd60e51b815260206004820152601960248201527f4552433732313a20617070726f766520746f2063616c6c65720000000000000060448201526064016103b5565b3360008181526005602090815260408083206001600160a01b03871680855290835292819020805460ff191686151590811790915590519081529192917f17307eab39ab6107e8899845ad3d59bd9653f200f220920489ca2b5937696c31910160405180910390a35050565b6107183383610a6d565b6107345760405162461bcd60e51b81526004016103b590611645565b61074084848484610cf3565b50505050565b6060610751826109e2565b6107b75760405162461bcd60e51b815260206004820152603160248201527f45524337323155524953746f726167653a2055524920717565727920666f72206044820152703737b732bc34b9ba32b73a103a37b5b2b760791b60648201526084016103b5565b600082815260066020526040812080546107d09061160a565b80601f01602080910402602001604051908101604052809291908181526020018280546107fc9061160a565b80156108495780601f1061081e57610100808354040283529160200191610849565b820191906000526020600020905b81548152906001019060200180831161082c57829003601f168201915b50505050509050600061086760408051602081019091526000815290565b905080516000141561087a575092915050565b8151156108ac578082604051602001610894929190611696565b60405160208183030381529060405292505050919050565b6108b584610d26565b949350505050565b60006108c860075490565b90506108d43382610dfe565b610913816040518060400160405280601d81526020017f68747470733a2f2f6a736f6e6b65657065722e636f6d2f622f39523445000000815250610e1c565b61094c604051806040016040528060168152602001754e4654206964202573206d696e74656420627920257360501b8152508233610ea7565b61095a600780546001019055565b50565b60006109688261053c565b905061099a6040518060400160405280600e81526020016d12b9903a37b5b2b71037bbb732b960911b81525082610eee565b919050565b61095a816040516024016109b391906113e5565b60408051601f198184030181529190526020810180516001600160e01b031663104c13eb60e21b179052610f2f565b6000908152600260205260409020546001600160a01b0316151590565b600081815260046020526040902080546001600160a01b0319166001600160a01b0384169081179091558190610a348261053c565b6001600160a01b03167f8c5be1e5ebec7d5bd14f71427d1e84f3dd0314c0f7b2291e5b200ac8c7c3b92560405160405180910390a45050565b6000610a78826109e2565b610ad95760405162461bcd60e51b815260206004820152602c60248201527f4552433732313a206f70657261746f7220717565727920666f72206e6f6e657860448201526b34b9ba32b73a103a37b5b2b760a11b60648201526084016103b5565b6000610ae48361053c565b9050806001600160a01b0316846001600160a01b03161480610b1f5750836001600160a01b0316610b148461034d565b6001600160a01b0316145b806108b557506001600160a01b0380821660009081526005602090815260408083209388168352929052205460ff166108b5565b826001600160a01b0316610b668261053c565b6001600160a01b031614610bce5760405162461bcd60e51b815260206004820152602960248201527f4552433732313a207472616e73666572206f6620746f6b656e2074686174206960448201526839903737ba1037bbb760b91b60648201526084016103b5565b6001600160a01b038216610c305760405162461bcd60e51b8152602060048201526024808201527f4552433732313a207472616e7366657220746f20746865207a65726f206164646044820152637265737360e01b60648201526084016103b5565b610c3b6000826109ff565b6001600160a01b0383166000908152600360205260408120805460019290610c649084906116db565b90915550506001600160a01b0382166000908152600360205260408120805460019290610c929084906116f2565b909155505060008181526002602052604080822080546001600160a01b0319166001600160a01b0386811691821790925591518493918716917fddf252ad1be2c89b69c2b068fc378daa952ba7f163c4a11628f55a4df523b3ef91a4505050565b610cfe848484610b53565b610d0a84848484610f50565b6107405760405162461bcd60e51b81526004016103b59061170a565b6060610d31826109e2565b610d955760405162461bcd60e51b815260206004820152602f60248201527f4552433732314d657461646174613a2055524920717565727920666f72206e6f60448201526e3732bc34b9ba32b73a103a37b5b2b760891b60648201526084016103b5565b6000610dac60408051602081019091526000815290565b90506000815111610dcc5760405180602001604052806000815250610df7565b80610dd68461105d565b604051602001610de7929190611696565b6040516020818303038152906040525b9392505050565b610e1882826040518060200160405280600081525061115b565b5050565b610e25826109e2565b610e885760405162461bcd60e51b815260206004820152602e60248201527f45524337323155524953746f726167653a2055524920736574206f66206e6f6e60448201526d32bc34b9ba32b73a103a37b5b2b760911b60648201526084016103b5565b600082815260066020908152604090912082516104eb928401906112c1565b6104eb838383604051602401610ebf9392919061175c565b60408051601f198184030181529190526020810180516001600160e01b031663e3849f7960e01b179052610f2f565b610e188282604051602401610f0492919061178f565b60408051601f198184030181529190526020810180516001600160e01b031663319af33360e01b1790525b80516a636f6e736f6c652e6c6f67602083016000808483855afa5050505050565b60006001600160a01b0384163b1561105257604051630a85bd0160e11b81526001600160a01b0385169063150b7a0290610f949033908990889088906004016117b9565b602060405180830381600087803b158015610fae57600080fd5b505af1925050508015610fde575060408051601f3d908101601f19168201909252610fdb918101906117f6565b60015b611038573d80801561100c576040519150601f19603f3d011682016040523d82523d6000602084013e611011565b606091505b5080516110305760405162461bcd60e51b81526004016103b59061170a565b805181602001fd5b6001600160e01b031916630a85bd0160e11b1490506108b5565b506001949350505050565b6060816110815750506040805180820190915260018152600360fc1b602082015290565b8160005b81156110ab578061109581611813565b91506110a49050600a83611844565b9150611085565b60008167ffffffffffffffff8111156110c6576110c66114e5565b6040519080825280601f01601f1916602001820160405280156110f0576020820181803683370190505b5090505b84156108b5576111056001836116db565b9150611112600a86611858565b61111d9060306116f2565b60f81b8183815181106111325761113261186c565b60200101906001600160f81b031916908160001a905350611154600a86611844565b94506110f4565b611165838361118e565b6111726000848484610f50565b6104eb5760405162461bcd60e51b81526004016103b59061170a565b6001600160a01b0382166111e45760405162461bcd60e51b815260206004820181905260248201527f4552433732313a206d696e7420746f20746865207a65726f206164647265737360448201526064016103b5565b6111ed816109e2565b1561123a5760405162461bcd60e51b815260206004820152601c60248201527f4552433732313a20746f6b656e20616c7265616479206d696e7465640000000060448201526064016103b5565b6001600160a01b03821660009081526003602052604081208054600192906112639084906116f2565b909155505060008181526002602052604080822080546001600160a01b0319166001600160a01b03861690811790915590518392907fddf252ad1be2c89b69c2b068fc378daa952ba7f163c4a11628f55a4df523b3ef908290a45050565b8280546112cd9061160a565b90600052602060002090601f0160209004810192826112ef5760008555611335565b82601f1061130857805160ff1916838001178555611335565b82800160010185558215611335579182015b8281111561133557825182559160200191906001019061131a565b50611341929150611345565b5090565b5b808211156113415760008155600101611346565b6001600160e01b03198116811461095a57600080fd5b60006020828403121561138257600080fd5b8135610df78161135a565b60005b838110156113a8578181015183820152602001611390565b838111156107405750506000910152565b600081518084526113d181602086016020860161138d565b601f01601f19169290920160200192915050565b602081526000610df760208301846113b9565b60006020828403121561140a57600080fd5b5035919050565b80356001600160a01b038116811461099a57600080fd5b6000806040838503121561143b57600080fd5b61144483611411565b946020939093013593505050565b60008060006060848603121561146757600080fd5b61147084611411565b925061147e60208501611411565b9150604084013590509250925092565b6000602082840312156114a057600080fd5b610df782611411565b600080604083850312156114bc57600080fd5b6114c583611411565b9150602083013580151581146114da57600080fd5b809150509250929050565b634e487b7160e01b600052604160045260246000fd5b6000806000806080858703121561151157600080fd5b61151a85611411565b935061152860208601611411565b925060408501359150606085013567ffffffffffffffff8082111561154c57600080fd5b818701915087601f83011261156057600080fd5b813581811115611572576115726114e5565b604051601f8201601f19908116603f0116810190838211818310171561159a5761159a6114e5565b816040528281528a60208487010111156115b357600080fd5b82602086016020830137600060208483010152809550505050505092959194509250565b600080604083850312156115ea57600080fd5b6115f383611411565b915061160160208401611411565b90509250929050565b600181811c9082168061161e57607f821691505b6020821081141561163f57634e487b7160e01b600052602260045260246000fd5b50919050565b60208082526031908201527f4552433732313a207472616e736665722063616c6c6572206973206e6f74206f6040820152701ddb995c881b9bdc88185c1c1c9bdd9959607a1b606082015260800190565b600083516116a881846020880161138d565b8351908301906116bc81836020880161138d565b01949350505050565b634e487b7160e01b600052601160045260246000fd5b6000828210156116ed576116ed6116c5565b500390565b60008219821115611705576117056116c5565b500190565b60208082526032908201527f4552433732313a207472616e7366657220746f206e6f6e20455243373231526560408201527131b2b4bb32b91034b6b83632b6b2b73a32b960711b606082015260800190565b60608152600061176f60608301866113b9565b6020830194909452506001600160a01b0391909116604090910152919050565b6040815260006117a260408301856113b9565b905060018060a01b03831660208301529392505050565b6001600160a01b03858116825284166020820152604081018390526080606082018190526000906117ec908301846113b9565b9695505050505050565b60006020828403121561180857600080fd5b8151610df78161135a565b6000600019821415611827576118276116c5565b5060010190565b634e487b7160e01b600052601260045260246000fd5b6000826118535761185361182e565b500490565b6000826118675761186761182e565b500690565b634e487b7160e01b600052603260045260246000fdfea2646970667358221220cf9875132c0a936ec482da8c35d404df014cad3977858a0a25e3b600938f810e64736f6c63430008080033",
    "sourcePath": "/home/sprtd/Desktop/buildspace/NFT_proj/epic-nft/contracts/MyEpicNFT.sol",
    "compiler": {
        "name": "solc",
        "version": "0.8.8+commit.dddeac2f"
    },
    "functionHashes": {
        "approve(address,uint256)": "095ea7b3",
        "balanceOf(address)": "70a08231",
        "getApproved(uint256)": "081812fc",
        "getNFTOwner(uint256)": "deaea2e3",
        "isApprovedForAll(address,address)": "e985e9c5",
        "makeAnEpicNFT()": "de9d132f",
        "name()": "06fdde03",
        "ownerOf(uint256)": "6352211e",
        "safeTransferFrom(address,address,uint256)": "42842e0e",
        "safeTransferFrom(address,address,uint256,bytes)": "b88d4fde",
        "setApprovalForAll(address,bool)": "a22cb465",
        "supportsInterface(bytes4)": "01ffc9a7",
        "symbol()": "95d89b41",
        "tokenURI(uint256)": "c87b56dd",
        "transferFrom(address,address,uint256)": "23b872dd"
    },
    "gasEstimates": {
        "creation": {
            "codeDepositCost": "1265600",
            "executionCost": "infinite",
            "totalCost": "infinite"
        },
        "external": {
            "approve(address,uint256)": "infinite",
            "balanceOf(address)": "2612",
            "getApproved(uint256)": "4799",
            "getNFTOwner(uint256)": "infinite",
            "isApprovedForAll(address,address)": "infinite",
            "makeAnEpicNFT()": "infinite",
            "name()": "infinite",
            "ownerOf(uint256)": "2645",
            "safeTransferFrom(address,address,uint256)": "infinite",
            "safeTransferFrom(address,address,uint256,bytes)": "infinite",
            "setApprovalForAll(address,bool)": "26695",
            "supportsInterface(bytes4)": "534",
            "symbol()": "infinite",
            "tokenURI(uint256)": "infinite",
            "transferFrom(address,address,uint256)": "infinite"
        }
    }
}